:1000000000000120210D0000D10D0000D30D0000E3
:10001000D50D0000D70D0000D90D0000DB0D00004C
:10002000000000000000000000000000DD0D0000E6
:10003000DF0D000000000000E10D0000E30D0000F6
:1000400000000000000000000000000000000000B0
:1000500000000000000000000000000000000000A0
:100060000000000000000000000000000000000090
:100070000000000000000000000000000000000080
:100080000000000000000000000000000000000070
:100090000000000000000000000000000000000060
:1000A0000000000000000000000000000000000050
:1000B000E50D0000E50D0000E50D0000E50D000078
:1000C0000000000000000000000000000000000030
:1000D0000000000000000000000000000000000020
:1000E0000000000000000000000000000000000010
:1000F0000000000000000000000000000000000000
:1001000000000000000000000000000000000000EF
:1001100000000000000000000000000000000000DF
:1001200000000000000000000000000000000000CF
:1001300000000000000000000000000000000000BF
:10014000E50D0000E50D00000000000000000000CB
:100150000000000000000000E50D0000E50D0000BB
:10016000E50D000000000000E50D0000E50D0000B9
:10017000E50D00000000000000000000000000008D
:100180000000000000000000E50D0000000000007D
:10019000E50D0000E50D000000000000000000007B
:1001A000E50D00000000000000000000000000005D
:1001B000000000000000000000000000000000003F
:1001C000000000000000000000000000000000002F
:1001D000000000000000000000000000000000001F
:1001E000000000000000000000000000000000000F
:1001F00000000000000000000000000000000000FF
:1002000000000000000000000000000000000000EE
:1002100000000000000000000000000000000000DE
:1002200000000000000000000000000000000000CE
:1002300000000000000000000000000000000000BE
:10024000E50D0000000000000000000000000000BC
:1002500000000000E50D000000000000E50D0000BA
:10026000E50D0000E50D0000E50D0000E50D0000C6
:10027000000000000000000000000000000000007E
:10028000000000000000000000000000000000006E
:10029000000000000000000000000000000000005E
:1002A000000000000000000000000000000000004E
:1002B000000000000000000000000000000000003E
:1002C000000000000000000000000000000000002E
:1002D000000000000000000000000000000000001E
:1002E000000000000000000000000000000000000E
:1002F00000000000000000000000000000000000FE
:1003000000000000000000000000000000000000ED
:1003100000000000000000000000000000000000DD
:1003200000000000000000000000000000000000CD
:1003300000000000000000000000000000000000BD
:10034000E50D0000000000000000000000000000BB
:100350000000000000000000E50D0000E50D0000B9
:10036000E50D0000E50D0000E50D0000E50D0000C5
:10037000E50D0000E50D0000E50D000000000000A7
:10038000E50D0000E50D0000E50D0000E50D0000A5
:10039000E50D0000E50D0000E50D0000E50D000095
:1003A0000000000000000000E50D0000E50D000069
:1003B000E50D0000E50D0000000000000000000059
:1003C000E50D0000E50D0000E50D0000E50D000065
:1003D000E50D0000E50D0000000000000000000039
:1003E000000000000000000000000000000000000D
:1003F00000000000000000000000000000000000FD
:1004000000000000000000000000000000000000EC
:1004100000000000000000000000000000000000DC
:1004200000000000000000000000000000000000CC
:1004300000000000000000000000000000000000BC
:10044000E50D0000000000000000000000000000BA
:10045000E50D0000E50D0000E50D000000000000C6
:10046000E50D0000E50D00000000000000000000A8
:08047000E50D0000E50D0000A0
:1004780068656C6C6F20776F726C640A000000000E
:08048800286E756C6C29000060
:100490000348044B834202D0034B03B11847704713
:1004A000040000200400002000000000064B074963
:1004B000C91A891048BF0131491003D0044B0BB150
:1004C00001481847704700BF0400002004000020C6
:1004D0000000000010B5064C237843B9FFF7D8FFA1
:1004E000044B13B10448AFF300800123237010BD07
:1004F0000400002000000000080E000008B5044BB6
:100500001BB104490448AFF30080BDE80840CDE7C3
:100510000000000008000020080E000008B5024896
:1005200000F09EFB30BFFDE778040000074BD3F8D6
:100530000438012B06D0032B00D07047044B054A2A
:100540001A607047024B044A1A607047000012504C
:10055000000000200090D0030020A10701237B4A67
:100560007B49D2F84023C1F800381C2A04BF794ADD
:10057000C2F80C34784BD3F8002590070DD5D3F88A
:100580000035D9070FD509200F210122734BC3F87D
:100590000C05C3F804151A60FEE77149714AC3F8E7
:1005A0000015C3F800256C4BD3F80825920718D422
:1005B0006B496C4AC3F80815C3F80825664BD3F895
:1005C000102590071BD5D3F81035D9071DD5092064
:1005D0000F210122614BC3F80C05C3F804151A6002
:1005E000FEE7D3F80835DB07E8D509200F21012203
:1005F0005A4BC3F80C05C3F804151A60FEE75849B6
:10060000584AC3F81015C3F81025534BD3F81825D2
:10061000920718D45249534AC3F81815C3F818253D
:100620004D4BD3F8002790071BD5D3F80037D907D7
:100630001DD509200F210122484BC3F80C05C3F832
:1006400004151A60FEE7D3F81835DB07E8D5092052
:100650000F210122414BC3F80C05C3F804151A60A1
:10066000FEE73F493F4AC3F80017C3F800273E4959
:100670000022D1F88C3043F44063C1F88C3009E09B
:10068000D3F8001481B1D3F80014D3F80434402A0D
:100690000B6009D0D30003F57F0303F54043D3F883
:1006A000001401320131EBD1294BD3F8402412B9A7
:1006B000C822C3F84024254BD3E9D0211C2A18D0E6
:1006C00003222A49284BC1F81825D3F88C2042F47C
:1006D0004062C3F88C20D3F8882042F47002C3F83B
:1006E0008820BFF34F8FBFF36F8F0023C1F8A03571
:1006F0007047012909D01E4BD3F80026D207DFD559
:100700006FF00102C3F80026DAE7D3F83423194B5F
:100710009A4203D80E4B184AC3F840260B4B174990
:10072000D3F8402316481C2AC1F8AC07D3F8443349
:10073000C6D1012BDFD13422054BC3F82426D3F8D0
:100740003C2622F40022C3F83C26D4E700C0FF0078
:10075000000012500030055000C00D5000801050B5
:10076000F000FA500100FA5000ED00E000B0045033
:1007700000E01050001D0A1840E0A91E00A008501B
:1007800078000A042DE9F04784B0DDF830801E4679
:1007900008F00109002800F08A801746002A63D17A
:1007A00000230D9A8DF80F30A2F13A0E0DF10F03D0
:1007B00005E0814203F8014C18D82B461046B0FBE7
:1007C000F1F201FB120C0EEB0C043034BCF1090FFA
:1007D00003F1FF350CF1300AE4B2EAD85FFA8AF48B
:1007E000814203F8014C03F1FF35E6D947B1002EF1
:1007F0006AD018F002027BD02D2000F059FA013E99
:10080000002E4FDD2B46194613F8012F002AFAD18E
:10081000C5F1010319448E422ADC18F002085CD0AD
:10082000B9F1000F6FD016464FF0300A9046A94636
:10083000204600F03DFA4B4619F8014F002CF7D145
:100840000136761B1E44B8F1000FD8BFF01908DD41
:100850004446504600F02CFA013CFAD1B04408EB73
:10086000070004B0BDE8F0870A293DD0002797E7CC
:1008700018F0020FA6EB010614BF4FF0300A4FF03C
:10088000200AB046B9F1000F0FD1504600F010FA1F
:10089000B8F10108CBD0504600F00AFAB8F10108CF
:1008A000F3D1C4E7B0464FF0200A0026BFE730205E
:1008B000002BADF8040003DD012E08F0020325D162
:1008C00000F0F6F90120CCE72D24374605F8014C5D
:1008D000B0464FF0200A9D1EA9E7B9F1000F0DD0D8
:1008E00046464FF0200AA2E70028BFDA404257E709
:1008F0002D24174605F8014C9D1E81E74FF0200A74
:100900000026B04693E74FF0300AF9E7741E8BB12A
:1009100007460546B9F1000F0FD0302000F0C8F9A6
:10092000EDB2284600F0C4F9013CFAD1304604B0DB
:10093000BDE8F08720273D46ECE7384600F0B8F9DF
:10094000013CFAD1302000F0B3F93046EFE700BFA8
:100950002DE9F04F0546007883B0002800F0828032
:100960000F46002607E000F0A3F92C460136607818
:10097000651C002877D02528F5D16878002872D02A
:10098000252805F101046BD02D2805BFA878012288
:100990000022AC1C302840F0DA8014F8010F42F03D
:1009A00002023028F9D04FF0020CA0F13003D9B286
:1009B00009294FF000050AD814F8010F05EB850549
:1009C00003EB4505A0F13003D9B20929F4D9583811
:1009D0002028CCD801A353F820F000BF430B00001F
:1009E0006F0900006F0900006F0900006F09000027
:1009F0006F0900006F0900006F0900006F09000017
:100A00006F0900006F0900001B0B0000130B0000B2
:100A10006F0900006F0900006F0900006F090000F6
:100A20006F0900006F0900006F0900006F090000E6
:100A30006F0900006F0900006F0900006F090000D6
:100A40006F0900006F090000A10A00006F09000093
:100A5000890A00006F0900006F0900006F0A00009A
:100A6000254680E70646304603B0BDE8F08F009289
:100A70002B46002239466120019008681021FFF7BB
:100A800081FE0437064472E700922B460022612063
:100A9000019038680A21FFF775FE0437064466E7BF
:100AA0003B680437002B55D0002D9846187802F08B
:100AB000010240F39F80002856D043469E4613F81B
:100AC000011F0029FAD1C8F1010BDE44AE4549DB14
:100AD000BCF1000F40F093804FF0200A0025A9469A
:100AE00000F0E6F8434618F8010F0028F8D1AB44AF
:100AF000B9F1000F03EB0B0521DDC8465FFA8AFA56
:100B0000504600F0D5F8B8F10108F9D1A9444E4497
:100B10002DE700922B460122B9E7002D97F800A09F
:100B200002F0010207F1040737DDBAF1000F00F00F
:100B30008480012D37D1504600F0BAF801252E44AB
:100B400015E700922B4600223946412094E74FF0EA
:100B5000000C2AE7002D43DD2820DFF8008102F099
:100B60000102AAE7A5EB0E05BCF1000F4AD14FF038
:100B7000200BDA46A9461AB1002868D0002509E002
:100B8000584600F095F8B9F10109F9D198F800003C
:100B90000028D4D0C8F1010BA2E7EAB9BAF1000FDE
:100BA0003FF4E5AEC7E7013DBCF1000F2ED14FF099
:100BB00020097AB3504600F07BF84FF0010AA846AE
:100BC0005FFA89F9484600F073F8B8F10108F9D1E5
:100BD00005EB0A031E44CAE6BAF1000FABD1C6E624
:100BE0002820DFF87880A9464FF0200A0025C8F1B8
:100BF000010B75E7F2B900283FF4B9AEF3E74FF007
:100C0000300A6BE74FF0300BDA46B3E74FF03009AC
:100C1000002ACFD1A846484600F04AF8B8F10108AA
:100C2000F9D1BAF1000F8AD05046013500F040F8F2
:100C30002E449CE60028D6D199E6BCF1000F08D0DE
:100C40004FF03009002AE5D04FF0000AB7E705461B
:100C500053E74FF02009002ADCD0F5E788040000B4
:100C60000FB400B583B004A951F8040B0191FFF74C
:100C70006FFE03B05DF804EB04B0704730B424217C
:100C80004FF08055012225240820074BC3F8245536
:100C9000C3F804160549C3F80C46C3F86C2530BCEC
:100CA000C3F800050A70704700600C502000002057
:100CB000174B30B41A788AB94FF080552424154A5E
:100CC0000121C2F82455C2F8044625250824C2F89B
:100CD0000C56C2F86C15C2F80045197001210025A8
:100CE0000C4A0D4CC2F880541871C2F83C47C2F847
:100CF00040171165D2F80C31002BFBD030BC00211D
:100D00000123C2F80C115365D2F88004704700BF6C
:100D10002000002000600C5024000020704700BF1D
:100D200019491A4A1A4B00F010F81A491A4A1B4B73
:100D300000F00BF81A491B4A1B4B00F006F81B4940
:100D40001B4A1C4B00F001F806E0521A03DD043A7E
:100D500098588850FBDC70471749184A00F009F88A
:100D60001749184A00F005F81749184A00F001F829
:100D700006E00020521A02DD043A8850FCDC70477D
:100D8000FFF7ECFBFFF7CAFB000000200400002087
:100D9000540E00000400002004000020580E000043
:100DA0000400002004000020580E00000400002071
:100DB00004000020580E000004000020280000203D
:100DC0002800002028000020280000202800002003
:100DD000FEE7FEE7FEE7FEE7FEE7FEE7FEE7FEE7EB
:100DE000FEE7FEE7FEE700BFF8B500BFF8BC08BCB1
:100DF0009E467047FD040000F8B500BFF8BC08BC73
:0C0E00009E467047D50400000000000072
:100E0C00540E00000000002001000000580E0000ED
:100E1C000400002000000000580E00000400002018
:100E2C0000000000580E000004000020000000002C
:100E3C000400002009000000280000200000000031
:080E4C00280000200000000056
:040E54000090D00337
:0400000300000D21CB
:00000001FF
